tcpdump -XX -i eth0
tcpdump: verbose output suppressed, use -v or -vv for full protocol decode
listening on eth0, link-type EN10MB (Ethernet), capture size 262144 bytes
23:55:57.599204 IP 134.122.43.237.ssh > cpe9050cab0d503-cm9050cab0d500.cpe.net.cable.rogers.com.52751: Flags [P.], seq 3216233469:3216233505, ack 965377835, win 501, options [nop,nop,TS val 287084552 ecr 2168876788], length 36
	0x0000:  fe00 0000 0101 4e54 51e8 441a 0800 4510  ......NTQ.D...E.
	0x0010:  0058 1004 4000 4006 bd48 867a 2bed 63e7  .X..@.@..H.z+.c.
	0x0020:  56f5 0016 ce0f bfb3 d3fd 398a 7f2b 8018  V.........9..+..
	0x0030:  01f5 6d8e 0000 0101 080a 111c 9008 8146  ..m............F
	0x0040:  6ef4 e5bf 4b95 310b ed96 3c34 691a 8ed3  n...K.1...<4i...
	0x0050:  337e d2e1 641b 7b60 929f 40fc 1af5 7213  3~..d.{`..@...r.
	0x0060:  3130 6ad0 840a                           10j...
23:55:57.600195 IP 134.122.43.237.ssh > cpe9050cab0d503-cm9050cab0d500.cpe.net.cable.rogers.com.52751: Flags [P.], seq 36:144, ack 1, win 501, options [nop,nop,TS val 287084553 ecr 2168876788], length 108
	0x0000:  fe00 0000 0101 4e54 51e8 441a 0800 4510  ......NTQ.D...E.
	0x0010:  00a0 1005 4000 4006 bcff 867a 2bed 63e7  ....@.@....z+.c.
	0x0020:  56f5 0016 ce0f bfb3 d421 398a 7f2b 8018  V........!9..+..
	0x0030:  01f5 6dd6 0000 0101 080a 111c 9009 8146  ..m............F
	0x0040:  6ef4 7203 cc96 f1bf 59ec d8dd cb50 11c3  n.r.....Y....P..
	0x0050:  279a 17bd 2fea 2dde 93dc 72b5 a695 e590  '.../.-...r.....
	0x0060:  6dc4 35ef b8f1 9060 fb76 d65c 8933 8ca5  m.5....`.v.\.3..
	0x0070:  cc71 89d0 c061 bc02 8e77 48db 61f4 ee85  .q...a...wH.a...
	0x0080:  112a 9acf 1c80 9fe6 1a48 93a9 666d 110f  .*.......H..fm..
	0x0090:  f305 ffcb 0c6f 9954 8fde a68a 4700 2c47  .....o.T....G.,G
	0x00a0:  dba6 b7e7 2db8 4c40 6b56 05f2 aa4d       ....-.L@kV...M
23:55:57.600245 IP 134.122.43.237.ssh > cpe9050cab0d503-cm9050cab0d500.cpe.net.cable.rogers.com.52751: Flags [P.], seq 144:180, ack 1, win 501, options [nop,nop,TS val 287084554 ecr 2168876788], length 36
	0x0000:  fe00 0000 0101 4e54 51e8 441a 0800 4510  ......NTQ.D...E.
	0x0010:  0058 1006 4000 4006 bd46 867a 2bed 63e7  .X..@.@..F.z+.c.
	0x0020:  56f5 0016 ce0f bfb3 d48d 398a 7f2b 8018  V.........9..+..
	0x0030:  01f5 6d8e 0000 0101 080a 111c 900a 8146  ..m............F
	0x0040:  6ef4 9094 d31f 1704 c1d3 4970 d210 5d6c  n.........Ip..]l
	0x0050:  27a1 623a 17c6 955c f97a c7ff a38c fe13  '.b:...\.z......
	0x0060:  90c9 2330 92fe                           ..#0..
23:55:57.600287 IP 134.122.43.237.ssh > cpe9050cab0d503-cm9050cab0d500.cpe.net.cable.rogers.com.52751: Flags [P.], seq 180:288, ack 1, win 501, options [nop,nop,TS val 287084554 ecr 2168876788], length 108
	0x0000:  fe00 0000 0101 4e54 51e8 441a 0800 4510  ......NTQ.D...E.
	0x0010:  00a0 1007 4000 4006 bcfd 867a 2bed 63e7  ....@.@....z+.c.
	0x0020:  56f5 0016 ce0f bfb3 d4b1 398a 7f2b 8018  V.........9..+..
	0x0030:  01f5 6dd6 0000 0101 080a 111c 900a 8146  ..m............F
	0x0040:  6ef4 20f8 eb1a f2fe 5852 6039 c6e3 2923  n.......XR`9..)#
	0x0050:  a9ef 44d5 10a3 692e 1c4d 615e 7de7 f045  ..D...i..Ma^}..E
	0x0060:  9bcf 0ba9 5aba a776 6687 6921 9995 d33f  ....Z..vf.i!...?
	0x0070:  0e4e 5e18 3cac 2f92 af27 ab4f 4cd0 745c  .N^.<./..'.OL.t\
	0x0080:  7c0e 3aa8 e25f 05bd e4f2 4495 d22c 9c36  |.:.._....D..,.6
	0x0090:  8985 d207 a100 5db8 1b70 0d33 de6c b484  ......]..p.3.l..
	0x00a0:  31da e148 cccb 65ad b2d2 a920 69b0       1..H..e.....i.
23:55:57.600319 IP 134.122.43.237.ssh > cpe9050cab0d503-cm9050cab0d500.cpe.net.cable.rogers.com.52751: Flags [P.], seq 288:324, ack 1, win 501, options [nop,nop,TS val 287084554 ecr 2168876788], length 36
	0x0000:  fe00 0000 0101 4e54 51e8 441a 0800 4510  ......NTQ.D...E.
	0x0010:  0058 1008 4000 4006 bd44 867a 2bed 63e7  .X..@.@..D.z+.c.
	0x0020:  56f5 0016 ce0f bfb3 d51d 398a 7f2b 8018  V.........9..+..
	0x0030:  01f5 6d8e 0000 0101 080a 111c 900a 8146  ..m............F
	0x0040:  6ef4 06d9 076a 06ea 98bf c76b 9c64 b20d  n....j.....k.d..
	0x0050:  bb7e 05b9 3cfc 063d f377 5dc0 4c0d d661  .~..<..=.w].L..a
	0x0060:  77d9 2d9e 36cb                           w.-.6.
23:55:57.600629 IP 134.122.43.237.35501 > dns.google.domain: 9433+ PTR? 245.86.231.99.in-addr.arpa. (44)
	0x0000:  fe00 0000 0101 4e54 51e8 441a 0800 4500  ......NTQ.D...E.
	0x0010:  0048 f6d6 4000 4011 8157 867a 2bed 0808  .H..@.@..W.z+...
	0x0020:  0808 8aad 0035 0034 c2bc 24d9 0100 0001  .....5.4..$.....
	0x0030:  0000 0000 0000 0332 3435 0238 3603 3233  .......245.86.23
	0x0040:  3102 3939 0769 6e2d 6164 6472 0461 7270  1.99.in-addr.arp
	0x0050:  6100 000c 0001                           a.....
23:55:57.609163 IP dns.google.domain > 134.122.43.237.35501: 9433 1/0/0 PTR cpe9050cab0d503-cm9050cab0d500.cpe.net.cable.rogers.com. (113)
	0x0000:  4e54 51e8 441a fe00 0000 0101 0800 4500  NTQ.D.........E.
	0x0010:  008d 0e79 0000 7c11 6d70 0808 0808 867a  ...y..|.mp.....z
	0x0020:  2bed 0035 8aad 0079 4a72 24d9 8180 0001  +..5...yJr$.....
	0x0030:  0001 0000 0000 0332 3435 0238 3603 3233  .......245.86.23
	0x0040:  3102 3939 0769 6e2d 6164 6472 0461 7270  1.99.in-addr.arp
	0x0050:  6100 000c 0001 c00c 000c 0001 0000 0307  a...............
	0x0060:  0039 1e63 7065 3930 3530 6361 6230 6435  .9.cpe9050cab0d5
	0x0070:  3033 2d63 6d39 3035 3063 6162 3064 3530  03-cm9050cab0d50
	0x0080:  3003 6370 6503 6e65 7405 6361 626c 6506  0.cpe.net.cable.
	0x0090:  726f 6765 7273 0363 6f6d 00              rogers.com.
23:55:57.609365 IP 134.122.43.237.42158 > dns.google.domain: 48509+ PTR? 237.43.122.134.in-addr.arpa. (45)
	0x0000:  fe00 0000 0101 4e54 51e8 441a 0800 4500  ......NTQ.D...E.
	0x0010:  0049 f6d7 4000 4011 8155 867a 2bed 0808  .I..@.@..U.z+...
	0x0020:  0808 a4ae 0035 0035 c2bd bd7d 0100 0001  .....5.5...}....
	0x0030:  0000 0000 0000 0332 3337 0234 3303 3132  .......237.43.12
	0x0040:  3203 3133 3407 696e 2d61 6464 7204 6172  2.134.in-addr.ar
	0x0050:  7061 0000 0c00 01                        pa.....
23:55:57.610372 IP dns.google.domain > 134.122.43.237.42158: 48509 NXDomain 0/1/0 (112)
	0x0000:  4e54 51e8 441a fe00 0000 0101 0800 4500  NTQ.D.........E.
	0x0010:  008c e9ee 0000 7c11 91fb 0808 0808 867a  ......|........z
	0x0020:  2bed 0035 a4ae 0078 23b2 bd7d 8183 0001  +..5...x#..}....
	0x0030:  0000 0001 0000 0332 3337 0234 3303 3132  .......237.43.12
	0x0040:  3203 3133 3407 696e 2d61 6464 7204 6172  2.134.in-addr.ar
	0x0050:  7061 0000 0c00 01c0 1000 0600 0100 0005  pa..............
	0x0060:  4f00 3703 6e73 310c 6469 6769 7461 6c6f  O.7.ns1.digitalo
	0x0070:  6365 616e 0363 6f6d 000a 686f 7374 6d61  cean.com..hostma
	0x0080:  7374 6572 c010 6032 d6f6 0000 2a30 0000  ster..`2....*0..
	0x0090:  0e10 0009 3a80 0000 0708                 ....:.....
23:55:57.610502 IP 134.122.43.237.ssh > cpe9050cab0d503-cm9050cab0d500.cpe.net.cable.rogers.com.52751: Flags [P.], seq 324:584, ack 1, win 501, options [nop,nop,TS val 287084564 ecr 2168876788], length 260
	0x0000:  fe00 0000 0101 4e54 51e8 441a 0800 4510  ......NTQ.D...E.
	0x0010:  0138 1009 4000 4006 bc63 867a 2bed 63e7  .8..@.@..c.z+.c.
	0x0020:  56f5 0016 ce0f bfb3 d541 398a 7f2b 8018  V........A9..+..
	0x0030:  01f5 6e6e 0000 0101 080a 111c 9014 8146  ..nn...........F
	0x0040:  6ef4 8207 496a 28a3 576b f953 b4cc 8cae  n...Ij(.Wk.S....
	0x0050:  40ea 5758 6cdd 2c77 b697 6673 da53 6b20  @.WXl.,w..fs.Sk.
	0x0060:  0e51 56ac cab2 9982 eb2b 12d9 8703 bee8  .QV......+......
	0x0070:  8281 a41f e743 ba74 e58c a583 7b9e 600f  .....C.t....{.`.
	0x0080:  b956 171f 0c0b fddb 49b3 9443 9a78 d722  .V......I..C.x."
	0x0090:  3a91 34cb e87e 1f1a 8c5e 8abd b2a4 b54a  :.4..~...^.....J
	0x00a0:  5a68 d966 e288 92fd 8553 87a3 f6db 516f  Zh.f.....S....Qo
	0x00b0:  5b63 8761 44e2 cffc e197 9157 4e81 0f79  [c.aD......WN..y
	0x00c0:  31c5 317e 9aec 2aee b54a aed7 5399 7b2b  1.1~..*..J..S.{+
	0x00d0:  3681 b48e 82f9 9db8 bb59 4915 ec80 1ba1  6........YI.....
	0x00e0:  1008 5ae3 3fd6 8ab4 ac2d dccb 0377 ac8d  ..Z.?....-...w..
	0x00f0:  66f1 2441 fade dbd7 4a9c 875b 4a52 c3c8  f.$A....J..[JR..
	0x0100:  3520 8331 cec5 6d66 8b57 1a1d 0605 be11  5..1..mf.W......
	0x0110:  b3f8 d4a1 2eb0 bbdf e21e 08ab 783e c3c6  ............x>..
	0x0120:  f612 c690 b69f 5b04 6c9d 65aa 2bfa 6c50  ......[.l.e.+.lP
	0x0130:  adc2 b371 3c38 c503 c4eb a62b 0f6f 8a46  ...q<8.....+.o.F
	0x0140:  c3f8 25e3 09cd                           ..%...
23:55:57.610550 IP 134.122.43.237.ssh > cpe9050cab0d503-cm9050cab0d500.cpe.net.cable.rogers.com.52751: Flags [P.], seq 584:620, ack 1, win 501, options [nop,nop,TS val 287084564 ecr 2168876788], length 36
	0x0000:  fe00 0000 0101 4e54 51e8 441a 0800 4510  ......NTQ.D...E.
	0x0010:  0058 100a 4000 4006 bd42 867a 2bed 63e7  .X..@.@..B.z+.c.
	0x0020:  56f5 0016 ce0f bfb3 d645 398a 7f2b 8018  V........E9..+..
	0x0030:  01f5 6d8e 0000 0101 080a 111c 9014 8146  ..m............F
	0x0040:  6ef4 60aa f134 3d91 d4a1 7fc6 a4e8 86a7  n.`..4=.........
	0x0050:  641c 2748 a9de f410 e6bf 3e31 785c 41b9  d.'H......>1x\A.
	0x0060:  b965 0866 9783                           .e.f..
23:55:57.610593 IP 134.122.43.237.ssh > cpe9050cab0d503-cm9050cab0d500.cpe.net.cable.rogers.com.52751: Flags [P.], seq 620:656, ack 1, win 501, options [nop,nop,TS val 287084564 ecr 2168876788], length 36
	0x0000:  fe00 0000 0101 4e54 51e8 441a 0800 4510  ......NTQ.D...E.
	0x0010:  0058 100b 4000 4006 bd41 867a 2bed 63e7  .X..@.@..A.z+.c.
	0x0020:  56f5 0016 ce0f bfb3 d669 398a 7f2b 8018  V........i9..+..
	0x0030:  01f5 6d8e 0000 0101 080a 111c 9014 8146  ..m............F
	0x0040:  6ef4 e6de 6486 80c8 dda6 edb4 bf40 d993  n...d........@..
	0x0050:  f1cd fb63 0396 72c0 41b2 7573 a5d4 29f0  ...c..r.A.us..).
	0x0060:  38ee c8ff 423e                           8...B>
23:55:57.610629 IP 134.122.43.237.ssh > cpe9050cab0d503-cm9050cab0d500.cpe.net.cable.rogers.com.52751: Flags [P.], seq 656:756, ack 1, win 501, options [nop,nop,TS val 287084564 ecr 2168876788], length 100
	0x0000:  fe00 0000 0101 4e54 51e8 441a 0800 4510  ......NTQ.D...E.
	0x0010:  0098 100c 4000 4006 bd00 867a 2bed 63e7  ....@.@....z+.c.
	0x0020:  56f5 0016 ce0f bfb3 d68d 398a 7f2b 8018  V.........9..+..
	0x0030:  01f5 6dce 0000 0101 080a 111c 9014 8146  ..m............F
	0x0040:  6ef4 d4bc 8a69 ca3f 482d 8b47 c754 5275  n....i.?H-.G.TRu
	0x0050:  6c43 0ac4 4fd8 f8ba 4fbb 6d94 892c df85  lC..O...O.m..,..
	0x0060:  699a 16f1 83cd 7fb1 a378 31cb cc3a 3dd4  i........x1..:=.
	0x0070:  c69a 5f8e 4e70 0081 e1a1 ea50 774f 1544  .._.Np.....PwO.D
	0x0080:  0381 44cd beff b1bd 2b7a e68c 269d 6fbf  ..D.....+z..&.o.
	0x0090:  ebea 437b 630a 581a 20fe 7d51 82af 9746  ..C{c.X...}Q...F
	0x00a0:  ccbb 8d7a c1f9                           ...z..
23:55:57.610662 IP 134.122.43.237.ssh > cpe9050cab0d503-cm9050cab0d500.cpe.net.cable.rogers.com.52751: Flags [P.], seq 756:792, ack 1, win 501, options [nop,nop,TS val 287084564 ecr 2168876788], length 36
	0x0000:  fe00 0000 0101 4e54 51e8 441a 0800 4510  ......NTQ.D...E.
	0x0010:  0058 100d 4000 4006 bd3f 867a 2bed 63e7  .X..@.@..?.z+.c.
	0x0020:  56f5 0016 ce0f bfb3 d6f1 398a 7f2b 8018  V.........9..+..
	0x0030:  01f5 6d8e 0000 0101 080a 111c 9014 8146  ..m............F
	0x0040:  6ef4 ab29 610f c349 d977 ec8f 6f9e b7be  n..)a..I.w..o...
	0x0050:  b297 0a41 e714 582a 3318 f54e ece8 639d  ...A..X*3..N..c.
	0x0060:  8dca bb58 6f00                           ...Xo.
23:55:57.612570 IP 134.122.43.237.40330 > dns.google.domain: 59366+ PTR? 8.8.8.8.in-addr.arpa. (38)
722 packets captured
11205 packets received by filter
10451 packets dropped by kernel